{
  "_format": "hh-sol-artifact-1",
  "contractName": "Score",
  "sourceName": "contracts/Score.sol",
  "abi": [
    {
      "inputs": [],
      "stateMutability": "nonpayable",
      "type": "constructor"
    },
    {
      "inputs": [],
      "name": "getScore",
      "outputs": [
        {
          "internalType": "uint256",
          "name": "",
          "type": "uint256"
        }
      ],
      "stateMutability": "nonpayable",
      "type": "function"
    },
    {
      "inputs": [
        {
          "internalType": "uint256",
          "name": "newScore",
          "type": "uint256"
        }
      ],
      "name": "setScore",
      "outputs": [],
      "stateMutability": "nonpayable",
      "type": "function"
    }
  ],
  "bytecode": "0x6080604052600560005534801561001557600080fd5b5060016000819055506103178061002d6000396000f3fe608060405234801561001057600080fd5b50600436106100365760003560e01c8063422beeba1461003b578063afd8206714610057575b600080fd5b610055600480360381019061005091906101a4565b610075565b005b61005f61007f565b60405161006c9190610245565b60405180910390f35b8060008190555050565b60006100c26040518060400160405280600581526020017f53636f72650000000000000000000000000000000000000000000000000000008152506000546100ca565b600054905090565b61016282826040516024016100e0929190610215565b6040516020818303038152906040527f9710a9d0000000000000000000000000000000000000000000000000000000007bffffffffffffffffffffffffffffffffffffffffffffffffffffffff19166020820180517bffffffffffffffffffffffffffffffffffffffffffffffffffffffff8381831617835250505050610166565b5050565b60008151905060006a636f6e736f6c652e6c6f679050602083016000808483855afa5050505050565b60008135905061019e816102ca565b92915050565b6000602082840312156101b657600080fd5b60006101c48482850161018f565b91505092915050565b60006101d882610260565b6101e2818561026b565b93506101f2818560208601610286565b6101fb816102b9565b840191505092915050565b61020f8161027c565b82525050565b6000604082019050818103600083015261022f81856101cd565b905061023e6020830184610206565b9392505050565b600060208201905061025a6000830184610206565b92915050565b600081519050919050565b600082825260208201905092915050565b6000819050919050565b60005b838110156102a4578082015181840152602081019050610289565b838111156102b3576000848401525b50505050565b6000601f19601f8301169050919050565b6102d38161027c565b81146102de57600080fd5b5056fea2646970667358221220ab23f8e49e4411bf68e169974e19974f83c4a9befd94f7cc192337e9c55a0b7064736f6c63430008000033",
  "linkReferences": {},
  "deployedLinkReferences": {}
}