{
  "_format": "hh-sol-artifact-1",
  "contractName": "Counter",
  "sourceName": "contracts/Counter.sol",
  "abi": [
    {
      "inputs": [],
      "name": "count",
      "outputs": [
        {
          "internalType": "uint256",
          "name": "",
          "type": "uint256"
        }
      ],
      "stateMutability": "nonpayable",
      "type": "function"
    }
  ],
  "bytecode": "0x608060405234801561001057600080fd5b50610320806100206000396000f3fe608060405234801561001057600080fd5b506004361061002b5760003560e01c806306661abd14610030575b600080fd5b61003861004e565b60405161004591906101ed565b60405180910390f35b600080600081548092919061006290610261565b91905055506100a86040518060400160405280600781526020017f436f756e746572000000000000000000000000000000000000000000000000008152506000546100b0565b600054905090565b61014882826040516024016100c69291906101bd565b6040516020818303038152906040527f9710a9d0000000000000000000000000000000000000000000000000000000007bffffffffffffffffffffffffffffffffffffffffffffffffffffffff19166020820180517bffffffffffffffffffffffffffffffffffffffffffffffffffffffff838183161783525050505061014c565b5050565b60008151905060006a636f6e736f6c652e6c6f679050602083016000808483855afa5050505050565b600061018082610208565b61018a8185610213565b935061019a81856020860161022e565b6101a3816102d9565b840191505092915050565b6101b781610224565b82525050565b600060408201905081810360008301526101d78185610175565b90506101e660208301846101ae565b9392505050565b600060208201905061020260008301846101ae565b92915050565b600081519050919050565b600082825260208201905092915050565b6000819050919050565b60005b8381101561024c578082015181840152602081019050610231565b8381111561025b576000848401525b50505050565b600061026c82610224565b91507fffffffffffffffffffffffffffffffffffffffffffffffffffffffffffffffff82141561029f5761029e6102aa565b5b600182019050919050565b7f4e487b7100000000000000000000000000000000000000000000000000000000600052601160045260246000fd5b6000601f19601f830116905091905056fea264697066735822122007f6aa9f53d2ee15c153bed6bc2751ae55b09ff6e5715f4e52219ba115632e8a64736f6c63430008000033",
  "linkReferences": {},
  "deployedLinkReferences": {}
}